:020000040800F2
:1000000000000220F9200008351D0008371D0008F7
:10001000391D00083B1D00083D1D000800000000C0
:100020000000000000000000000000008141000806
:100030003F1D000800000000214200088542000822
:1000400049210008492100084921000849210008E8
:1000500049210008492100084921000849210008D8
:1000600049210008492100084921000849210008C8
:1000700049210008492100084921000849210008B8
:1000800049210008492100084921000849210008A8
:100090004921000849210008492100084921000898
:1000A000411D000849210008492100084921000894
:1000B0004921000849210008492100084921000878
:1000C0004921000849210008492100084921000868
:1000D00049210008591D000849210008492100084C
:1000E0004921000849210008492100084921000848
:1000F0004921000849210008492100084921000838
:100100004921000849210008492100084921000827
:100110004921000849210008492100084921000817
:100120004921000849210008691D000849210008EB
:1001300049210008492100084921000849210008F7
:1001400049210008492100084921000849210008E7
:100150004921000849210008791D000849210008AB
:1001600049210008492100084921000849210008C7
:100170004921000849210008492100080000000029
:08018000492100084921000893
:1001900010B5054C237833B9044B13B10448AFF3C1
:1001A00000800123237010BD5408002000000000CF
:1001B0000C5F000808B5034B1BB103490348AFF3BC
:1001C000008008BD00000000580800200C5F0008F7
:1001D00081F0004102E000BF83F0004330B54FEAF8
:1001E00041044FEA430594EA050F08BF90EA020F65
:1001F0001FBF54EA000C55EA020C7FEA645C7FEAF8
:10020000655C00F0E2804FEA5454D4EB5555B8BF1A
:100210006D420CDD2C4480EA020281EA030382EA8B
:10022000000083EA010180EA020281EA0303362D1D
:1002300088BF30BD11F0004F4FEA01314FF4801CF0
:100240004CEA113102D0404261EB410113F0004F02
:100250004FEA03334CEA133302D0524263EB4303B9
:1002600094EA050F00F0A780A4F10104D5F1200E57
:100270000DDB02FA0EFC22FA05F2801841F10001B2
:1002800003FA0EF2801843FA05F359410EE0A5F186
:1002900020050EF1200E012A03FA0EFC28BF4CF0B7
:1002A000020C43FA05F3C01851EBE37101F000456D
:1002B00007D54FF0000EDCF1000C7EEB00006EEB7A
:1002C0000101B1F5801F1BD3B1F5001F0CD3490804
:1002D0005FEA30004FEA3C0C04F101044FEA44525B
:1002E00012F5800F80F09A80BCF1004F08BF5FEAE2
:1002F000500C50F1000041EB045141EA050130BDC2
:100300005FEA4C0C404141EB010111F4801FA4F164
:100310000104E9D191F0000F04BF01460020B1FAB9
:1003200081F308BF2033A3F10B03B3F120020CDAF1
:100330000C3208DD02F1140CC2F10C0201FA0CF0CF
:1003400021FA02F10CE002F11402D8BFC2F1200C34
:1003500001FA02F120FA0CFCDCBF41EA0C019040EA
:10036000E41AA2BF01EB0451294330BD6FEA040433
:100370001F3C1CDA0C340EDC04F11404C4F120021E
:1003800020FA04F001FA02F340EA030021FA04F330
:1003900045EA030130BDC4F10C04C4F1200220FA87
:1003A00002F001FA04F340EA0300294630BD21FAC5
:1003B00004F0294630BD94F0000F83F4801306BF8B
:1003C00081F480110134013D4EE77FEA645C18BF7F
:1003D0007FEA655C29D094EA050F08BF90EA020F16
:1003E00005D054EA000C04BF1946104630BD91EA0E
:1003F000030F1EBF0021002030BD5FEA545C05D111
:100400004000494128BF41F0004130BD14F580044F
:100410003CBF01F5801130BD01F0004545F0FE41C3
:1004200041F470014FF0000030BD7FEA645C1ABFF8
:10043000194610467FEA655C1CBF0B46024650EA2F
:10044000013406BF52EA033591EA030F41F400215B
:1004500030BD00BF90F0000F04BF0021704730B5E1
:100460004FF4806404F132044FF000054FF00001B6
:1004700050E700BF90F0000F04BF0021704730B577
:100480004FF4806404F1320410F0004548BF40424C
:100490004FF000013EE700BF42004FEAE2014FEAA1
:1004A00031014FEA02701FBF12F07F4393F07F4F7C
:1004B00081F06051704732F07F4208BF704793F07F
:1004C0007F4F04BF41F40021704730B54FF4607492
:1004D00001F0004521F000411CE700BF50EA010295
:1004E00008BF704730B54FF000050AE050EA01023E
:1004F00008BF704730B511F0004502D5404261EBAE
:1005000041014FF4806404F132045FEA915C3FF4EE
:10051000D8AE4FF003025FEADC0C18BF03325FEA8B
:10052000DC0C18BF033202EBDC02C2F1200300FA3C
:1005300003FC20FA02F001FA03FE40EA0E0021FA61
:1005400002F11444BDE600BF4FF0FF3C06E000BFDF
:100550004FF0010C02E000BF4FF0010C4DF804CD4C
:100560004FEA410C7FEA6C5C4FEA430C18BF7FEA0C
:100570006C5C1BD001B050EA410C0CBF52EA430C3A
:1005800091EA030F02BF90EA020F0020704710F1BA
:10059000000F91EA030F58BF994208BF90422CBF49
:1005A000D8176FEAE37040F0010070474FEA410C42
:1005B0007FEA6C5C02D150EA013C07D14FEA430C60
:1005C0007FEA6C5CD6D152EA033CD3D05DF8040BD1
:1005D000704700BF8446104662468C461946634603
:1005E00000E000BF01B5FFF7B7FF002848BF10F1DA
:1005F000000F01BD4DF808EDFFF7F4FF0CBF01201F
:1006000000205DF808FB00BF4DF808EDFFF7EAFF9A
:1006100034BF012000205DF808FB00BF4DF808ED55
:10062000FFF7E0FF94BF012000205DF808FB00BF4A
:100630004DF808EDFFF7CEFF94BF012000205DF8D4
:1006400008FB00BF4DF808EDFFF7C4FF34BF0120E1
:1006500000205DF808FB00BF4A0011D212F500121D
:1006600011D20DD56FF47873B3EB62520ED44FEA0A
:10067000C12343F0004343EA505323FA02F070478A
:100680004FF00000704750EA013002D14FF0FF30C8
:1006900070474FF00000704753B94AB9002908BFAE
:1006A00000281CBF4FF0FF314FF0FF3001F0F8B8C9
:1006B000ADF1080C6DE904CE00F006F8DDF804E0B9
:1006C000DDE9022304B070472DE9F047089E044697
:1006D0008846002B4BD18A42154667D9B2FA82F27E
:1006E0004AB1C2F1200701FA02F320FA07F7954058
:1006F00047EA030894404FEA154E230CB8FBFEF777
:100700001FFA85FC0EFB178843EA084307FB0CF130
:10071000994209D9EB1807F1FF3080F01B8199420B
:1007200040F21881023F2B445B1AA4B2B3FBFEF0E7
:100730000EFB103344EA034400FB0CFCA44509D92A
:100740002C1900F1FF3380F00781A44540F20481A9
:1007500002382C4440EA0740A4EB0C0400271EB1E9
:10076000D4400023C6E900433946BDE8F0878B42F8
:1007700009D9002E00F0EB800027C6E900013846B9
:100780003946BDE8F087B3FA83F7002F47D18B4293
:1007900002D3824200F2FA80841A61EB0303012043
:1007A0009846002EE0D0C6E90048DDE702B9FFDE3A
:1007B000B2FA82F2002A40F08F80491B4FEA154EB0
:1007C0001FFA85F80127B1FBFEFC230C0EFB1C1160
:1007D00043EA014308FB0CF1994207D9EB180CF1ED
:1007E000FF3002D2994200F2CD808446591AA3B25A
:1007F000B1FBFEF00EFB101443EA044408FB00F8C2
:10080000A04507D92C1900F1FF3302D2A04500F210
:10081000B6801846A4EB080440EA0C409FE7C7F1F5
:10082000200CBB4022FA0CFE4EEA030E01FA07F43C
:1008300020FA0CF521FA0CF34FEA1E482543B3FBCE
:10084000F8F92C0C08FB19331FFA8EFA44EA03431B
:1008500009FB0AF49C4202FA07F200FA07F10BD9ED
:100860001EEB030309F1FF3080F087809C4240F2C9
:100870008480A9F1020973441B1BADB2B3FBF8F0ED
:1008800008FB103345EA034400FB0AFAA24508D9E5
:100890001EEB040400F1FF336BD2A24569D9023884
:1008A000744440EA0940A0FB0289A4EB0A044C45C9
:1008B000C2464B4654D351D0002E69D0B1EB0A0545
:1008C00064EB030404FA0CFCFD40FC404CEA050513
:1008D000C6E90054002747E7C2F1200320FA03F7D6
:1008E000954001FA02F021FA03F34FEA154E38431E
:1008F000010CB3FBFEF71FFA85F80EFB173341EA34
:10090000034107FB08F38B4204FA02F407D9691884
:1009100007F1FF3C2FD28B422DD9023F2944CB1A3D
:1009200081B2B3FBFEF00EFB103341EA034100FB42
:1009300008F38B4207D9691800F1FF3C17D28B42AC
:1009400015D902382944C91A40EA07473BE7374618
:10095000304609E70746E7E61846FBE64145ABD2D5
:10096000B8EB020A69EB0E0201381346A4E76046B1
:10097000E9E7184695E76746D1E781467CE7023804
:100980002C4447E7ACF1020C2B442FE7384608E72C
:100990003746E9E603685A004CBF43F0004323F0B2
:1009A00000431844704700BF61B32DE9F84F01F1CF
:1009B000FF3A90460646D146002707EB090404EBB0
:1009C000D4746410E50071190846FFF7E3FFA245EF
:1009D000834605F10800304409D0FFF7DBFFC3452B
:1009E00000F1FF3005D8404509D2671CE5E7C34553
:1009F00005D9A74202D004F1FF39DEE700210846FD
:100A0000BDE8F88F08467047012807D0022807D0B4
:100A1000044B00280CBF184600207047024870475E
:100A200002487047F5100008F9100008FD10000892
:100A300030B5254B83B004468D1E4BB301A9284623
:100A4000AFF30080F0B101992A46FFF7ADFF0146F0
:100A5000C0B1FFF79FFF4B68A064012B2ED0002B85
:100A600001F1040026DBFFF795FF0023C4E913031F
:100A70000368002B12DBFFF78DFF0023206118466F
:100A800003B030BD002323610923184603B030BDF5
:100A90000E490F48091AC9100191D5E7C3F3036045
:100AA000FFF7B2FF002814BF002309232061184676
:100AB00003B030BD0123C4E91303D9E70023236148
:100AC0000523184603B030BD000000008860000810
:100AD000C05F00080368DA0710B5044606D49B0718
:100AE00000F1480009D500F05FFC2368590709D5DB
:100AF0001A070ED5DB0613D510BD00F04DFC236898
:100B00005907F5D404F1D00000F056FC23681A0709
:100B1000F0D404F5A87000F057FC2368DB06EBD492
:100B200004F5E870BDE8104000F092BC036803B122
:100B300003441846704700BF09207047704700BF44
:100B400070B504460D4608E02B6C63612A462369A4
:100B5000214601209847082808D1296C2046FFF734
:100B600067FF06460028EFD004F06EFC0728FBD193
:100B70003046296CFFF7E2FF281D00F001FC00BFA2
:100B80002DE9F0470C1D054617460FCCADF5727DDB
:100B900003AE0FC60FCC0FC60FCC0FC694E80F00E4
:100BA00002ACD5F80C80D5F8189086E80F00002329
:100BB000236021E0236C6B614FF4F07221467AA828
:100BC00000F070FE2B697AAA294630469847889B28
:100BD000CDE900498246636431462B462A4601200E
:100BE000C0470746F8B94FF4F0727AA9204600F0E2
:100BF00059FEBAF1080F1CD1216C2846FFF718FFE7
:100C0000002F08BF0926074618BF0A260028D1D0A2
:100C1000A36B46F01001CDE900492A466364012028
:100C20002B46C04700B1092738460DF5727DBDE857
:100C3000F087BAF1070FF6D13846216CFFF77EFF37
:100C400003A800F09DFB00BF406C7047F0B5CB6B74
:100C50000B640D1D0F4606460FCDF9B001AC0FC455
:100C60000FCD0FC40FCD0FC495E80F004FF0FF3527
:100C700084E80F00009506E033696A4631469847DC
:100C80000828044608D110993046FFF7D1FE002805
:100C9000F2D0092079B0F0BD6846FFF71BFF062CA3
:100CA000F7D139463046FFF74BFF00BF30B4DD6B5C
:100CB000C160826119461D64002230BC60E700BF3C
:100CC00070B5C66843690B64BEB903690A46044639
:100CD0000D46014602209847072807D0082803D16F
:100CE00029462046FFF72CFF04F0AEFB3046296C66
:100CF000FFF724FF281D00F043FB0122FFF740FF10
:100D000004F0A2FBC2681AB1CA6B0A64002237E77A
:100D10009CE700BF704700BF836813B10146012004
:100D200018477047042907D8DFE801F003080608D0
:100D300008000BB90F2A03D9022070470120704721
:100D400000EB820218465368009A1360704700BF98
:100D500010B584B0002303AC0A4600941946FFF78F
:100D6000E1FF039804B010BD042907D8DFE801F0C3
:100D70000308060808000BB90F2A03D902207047A0
:100D80000120704700EB8200009A1268426018460A
:100D9000704700BF10B584B004AC002344F8042DA4
:100DA0000A4600941946FFF7DFFF04B010BD00BFEC
:100DB000F0B5D36B1364151D07460E460FCDADF588
:100DC0000F7D17AC0FC40FCD0FC40FCD0FC495E826
:100DD0000F004FF0FF3584E80F00169510E016A8BD
:100DE000FFF7D8FF314616A8B84716AA694678B962
:100DF000049B08209847052804460AD0092807D0F4
:100E000026996846FFF714FE6A460C210028E6D0B2
:100E1000092416A8FFF75EFE20460DF50F7DF0BDF4
:100E20002DE9F04F0D46C96C89B00C1D164600F037
:100E3000030B0A6806941F46002B68D0130CD9B226
:100E400012048DF81D30022304EB810405928DF805
:100E50001C302B6DBBF1020F08BFAC6B13F001030C
:100E600046D1019300F008030093D4F80090B9F143
:100E7000000F00F0F380022F45D0B4F80090B4F8D2
:100E800002800434AB6C28F0010A0F2130469A44EA
:100E9000FFF75EFF824534D829F0010353448342B3
:100EA00094BF002001204FEA480808F0020809F02A
:100EB000010948EA0908B8F1010F3AD031D3B8F175
:100EC000020F1AD1236823F0004ABBF1000F66D14C
:100ED00030B1009A002A6CD0BAF1000F00F0908077
:100EE000002B00DA04340AF1010304EB8304BCE7AD
:100EF000304605A900F046FB78B1092009B0BDE8ED
:100F0000F08F0020CFE7D4F804800834BAE712024B
:100F100003230592ADF81C309BE7082009B0BDE81B
:100F2000F08FBBF1000F02D0002840F0B4800434F1
:100F30009BE7BBF1000F18D1A8B1D4E90023991C9D
:100F40004FEAD272D9D005F158010133049100F073
:100F5000B580201DFFF7EAFD04AB01462846AFF33C
:100F60000080002867D108347FE70D213046D5F88E
:100F70002080FFF7EDFE8045F5D1AB6A9C42F2D1AF
:100F80002046FFF707FD0F2102463046FFF702FF1C
:100F900030462A460021FFF7FDFE0720AEE70D216F
:100FA0003046D5F82080FFF7D3FE804532D0236845
:100FB00096E7BAF1000F23D005F1580304F10408B5
:100FC000CDF808B0DDF800900397A3461C4602E078
:100FD0005745B94640D040460494FFF7A7FD04ABFF
:100FE000014600222846AFF3008009F1010708F10D
:100FF00004080028ECD0D1455C46DDE902B7D6D123
:1010000030460D21FFF7A4FE049B2862C5E9093490
:10101000062073E7AB6A9C42C9D104224FF0000856
:10102000A318C5E90AA8C5E90C23236843454DDB8D
:101030000123019357E780460D213046FFF788FED4
:10104000B8F1020F28623ED12B46049A43F82C2FA8
:101050006B62AC62062051E75C46D1E705A93046D9
:1010600000F090FA00287FF448AF019B002B3FF47A
:1010700054AF0F213046FFF76BFE0E21024630467B
:10108000FFF788FE30461A4A0F21FFF783FE07203C
:1010900009B0BDE8F08F2046FFF77CFC043407461A
:1010A000AC632846AFF3008000283FF426AF3046FB
:1010B0003A460F21FFF76EFE07201FE730460D214D
:1010C000FFF746FE2862049B6B62C2E70AF101004B
:1010D00004EB8000FFF75EFC0F2102463046FFF76D
:1010E00059FE30462A464146FFF754FE072005E7E1
:1010F00000000000002393E6012391E602238FE61F
:101100002DE9F0410546C4B0042906D8DFE801F016
:101110004D2B05030900032B5FD0022044B0BDE82E
:10112000F081002BF9D1102AF7D82B68DC0600F1EA
:10113000F48022AC2046019200F094F9A86B019A49
:101140000023012606FA03F1114203D0016844F896
:10115000231004300133042BF4D1A863204600F09F
:1011600077F90020DAE7012B4FEA124697B252D006
:10117000052BD2D106EB0708B8F1200FCDD80F2EE2
:1011800040F29980B846002F40F0DB80AA6BAA633A
:101190000F2E40F2BE80B8F1000F02D002A800F07E
:1011A0000BF9002044B0BDE8F081002BB5D1AC6B49
:1011B00097B2281D012606FA03F1394203F1010313
:1011C00002D0216801600434102B00F10400F2D138
:1011D00012F40050E5D1AC63A0E7160C97B2F319F6
:1011E000102B9AD82B681A075DD422AC204600F049
:1011F0000DF904EBC601AB6B3FB103EBC7021868F6
:1012000041F8040B04339342F9D12046AB6300F05C
:10121000DBF8002082E7F219102A3FF67EAF0F2E8E
:101220003FF67BAF2A68D10708D5284622F0030293
:1012300040F8482B019300F0B3F8019B019322ACD6
:10124000204600F0ADF8A96B019B002F00F09580BF
:101250007F0004EBC6044FF00008043C01EB87025A
:1012600051F8040B44F8040F9142F9D1B8F1000F82
:101270000FD002AC102E314638BF102104EBC10153
:10128000843902EBC80452F8040B41F8040F94426D
:10129000F9D1012B7FF47BAF22AC0432AA63204644
:1012A00000F07AF87DE723F008032B6005F5A870BD
:1012B00000F0ACF899E7B8F1100F2A6843D9D007CD
:1012C000A8F110080BD5284622F0010242F00202D4
:1012D00040F8482B019300F06BF82A68019B5107F6
:1012E00025D40F2E04D822A8019300F061F8019BA9
:1012F000019302AC204600F063F8C6F1100100290A
:10130000AA6B019BB6DD22AC4F0004EBC60411466C
:10131000A3E722A800F048F83DE723F010032B6074
:1013200005F5E870019200F09DF8019A01E7284662
:1013300022F0040240F8D02B019300F041F8019B09
:10134000CFE72A68CBE7D0070AD5284622F001026A
:1013500042F0020240F8482B019300F029F8019B6B
:10136000019322AC204600F023F8B846A96B019BFC
:10137000002F7FF46DAF0A4609E70A468DE700BFEC
:1013800000F1340191E838009C46A6464CF8045D13
:1013900090E8FF0FE54600BD90EC210B704700BFC1
:1013A00080EC210B704700BF90EC200B704700BF12
:1013B00080EC200B704700BFD0EC200B704700BFC3
:1013C000C0EC200B704700BFF0EC0201F0EC021102
:1013D000F0EC0221F0EC0231F0EC0241F0EC0251B1
:1013E000F0EC0261F0EC0271F0EC0281F0EC0291A1
:1013F000F0EC02A1F0EC02B1F0EC02C1F0EC02D191
:10140000F0EC02E1F0EC02F1704700BFE0EC020109
:10141000E0EC0211E0EC0221E0EC0231E0EC0241F0
:10142000E0EC0251E0EC0261E0EC0271E0EC0281E0
:10143000E0EC0291E0EC02A1E0EC02B1E0EC02C1D0
:10144000E0EC02D1E0EC02E1E0EC02F1704700BF19
:10145000B0FC0181B0FC0191B0FC01A1B0FC01B174
:10146000704700BFA0FC0181A0FC0191A0FC01A17C
:10147000A0FC01B1704700BFEC4600B52DE900505B
:101480002DE9FF1F4FF000032DE90C0001A9FFF724
:10149000DDFBDDF840E012B0704700BFEC4600B560
:1014A0002DE900502DE9FF1F4FF000032DE90C003E
:1014B00001A9FFF705FCDDF840E012B0704700BF5E
:1014C000EC4600B52DE900502DE9FF1F4FF0000359
:1014D0002DE90C0001A9FFF715FCDDF840E012B082
:1014E000704700BFEC4600B52DE900502DE9FF1F05
:1014F0004FF000032DE90C0001ABFFF7D7FBDDF83F
:1015000040E012B0704700BFEC4600B52DE9005036
:101510002DE9FF1F4FF000032DE90C0001AAFFF792
:1015200047FCDDF840E012B0704700BF027A82B994
:10153000437AABB14268013B10B443721368032194
:10154000141D01721A02446002605DF8044B180E0B
:1015500070470368013A02721A020260180E70475F
:10156000B020704700B585B003AA00230092194649
:101570000C22FFF7D7FB039805B05DF804FB00BF12
:10158000F0E700BF2DE9F043054685B00E464FF069
:1015900000083046FFF7CAFFB028044600F0B180CB
:1015A000070620D500F0F003802B65D0902B36D0B5
:1015B000A02B78D0B02B47D0C02B00F08A8000F051
:1015C000F803D02B0BD100F00702013242F40022C5
:1015D000052301212846FFF793FD0028D9D00920D3
:1015E00005B0BDE8F0830DF10C0900231946870012
:1015F000CDF800900D222846FFF794FBFFB2039B25
:10160000CDF80090043760064CBFDF1BFF180023A5
:1016100019460D2228460397FFF7A6FBB9E700F00D
:101620000D030D2BDBD003AF002300F00F02194692
:1016300000972846FFF776FB0023009719460D22F6
:101640002846FFF791FBA4E7B1285FD0B22800F04D
:10165000CC80B3287ED000F0FC03B42BBFD000F0C8
:1016600007020132012342F4002219462846FFF7FF
:1016700047FD00288DD0B2E73046FFF757FF240220
:101680000443B4F5004FAAD024010023A2B21946A6
:101690002846FFF735FD0028A1D114F4004F18BFEC
:1016A0004FF0010875E7C24302F007034FF47F6271
:1016B0001A41010702F47F624FF0000348BF42F471
:1016C000804219462846FFF71BFD00283FF461AF12
:1016D00085E7C62851D0C7285AD000F0F803C02BA0
:1016E00069D0C82875D0C9287FF479AF3046FFF794
:1016F0001DFF020300F00F0002F4702201300243CC
:1017000066E7B8F1000F14D0002069E73046FFF714
:101710000DFF00283FF463AF10F0F0037FF45FAFDC
:10172000024619462846FFF7EBFC00283FF431AF8C
:1017300055E703AC43460E22414600942846FFF786
:10174000F1FA0094284643460F224146FFF70CFB6E
:10175000404645E73046FFF7E9FE010300F00F0081
:1017600001F47021421C01230A4328461946FFF761
:10177000C7FC00283FF40DAF31E73046FFF7D6FE37
:10178000010300F00F0001F47021421C0323EBE77A
:101790003046FFF7CBFE024600283FF420AF10F0A2
:1017A000F0037FF41CAF04212846FFF7A9FC0028B2
:1017B0003FF4EFAE13E700F00F020132032342F4CF
:1017C000202219462846FFF79BFC00283FF4E1AE93
:1017D00005E73046FFF7AAFE00F0F00200F00F0325
:1017E0001032013343EA0232F2E600230DF10C0914
:1017F0000D221946CDF800902846FFF793FA30469F
:10180000FFF794FE02064FF002070CD5039B00F091
:101810007F00B840034430460393FFF787FE03067A
:1018200007F10707F2D4039BCDF8009000F07F0486
:1018300003F50172BC400023144419460D222846CA
:101840000394FFF791FAA4E610B5C36C84B05A680C
:1018500003208DF80C00DC798DF80D40120208335E
:10186000084601A901920293FFF78CFE04B010BD57
:1018700008B5FFF785FE806C08BD00BF08B5FFF70F
:101880007FFEC06CC37900EB8300083008BD00BF49
:1018900008B503F0D9FD00BF08B5FFF7F9FF00BF99
:1018A000704700BF844641EA000313F003036DD183
:1018B000403A41D351F8043B40F8043B51F8043B13
:1018C00040F8043B51F8043B40F8043B51F8043B1A
:1018D00040F8043B51F8043B40F8043B51F8043B0A
:1018E00040F8043B51F8043B40F8043B51F8043BFA
:1018F00040F8043B51F8043B40F8043B51F8043BEA
:1019000040F8043B51F8043B40F8043B51F8043BD9
:1019100040F8043B51F8043B40F8043B51F8043BC9
:1019200040F8043B51F8043B40F8043B51F8043BB9
:1019300040F8043B403ABDD2303211D351F8043B59
:1019400040F8043B51F8043B40F8043B51F8043B99
:1019500040F8043B51F8043B40F8043B103AEDD208
:101960000C3205D351F8043B40F8043B043AF9D259
:10197000043208D0D2071CBF11F8013B00F8013B2C
:1019800001D30B8803806046704700BF082A13D339
:101990008B078DD010F003038AD0C3F10403D21A51
:1019A000DB071CBF11F8013B00F8013B80D331F885
:1019B000023B20F8023B7BE7043AD9D3013A11F805
:1019C000013B00F8013BF9D20B7803704B78437070
:1019D0008B7883706046704708B503F005FCB0B99A
:1019E000322003F01FFC03F0B5FB6E2200210846F5
:1019F00003F078FC104801F09FFB78B10E4B1B6898
:101A000040F214525A63012002F011FBFBE701225D
:101A10004FF48051094800F080FFE1E700210648BB
:101A200001F0B2FE0028E9D100224FF480510348B2
:101A300000F073FFE2E700BF180B0020001C02401B
:101A400010B582B0002401940D4B1A6B42F4800251
:101A50001A631B6B03F480030193019B224605214B
:101A60003A2000F0C5FB3A2000F0F6FB22460521A3
:101A7000462000F0BDFB462000F0EEFB02B010BD9A
:101A80000038024008B5012002F0D1FAFBE700005F
:101A9000034B0360034B0B6080231360704700BF50
:101AA000780A00207808002070B58EB00F4C07AD82
:101AB00026460FCE0FC596E8070085E807000021EF
:101AC00007A802F07EFA0A4B18606D461C340FCC52
:101AD0000FC594E8070085E807000021684602F07A
:101AE00070FA044B18600EB070BD00BF245F000890
:101AF000740800207008002030B58BB000240594D5
:101B0000069407940894099401941E4B1A6B42F0B2
:101B100002021A631A6B02F002020192019A029405
:101B20001A6B42F001021A631A6B02F00102029270
:101B3000029A03941A6B42F080021A631A6B02F045
:101B400080020392039A04941A6B42F010021A6303
:101B50001B6B03F010030493049B0B4D22464FF4C0
:101B6000E051284600F0D9FE4FF4E05305930123DD
:101B700006930794089405A9284600F0DDFD0BB0F4
:101B800030BD00BF00380240001C024008B50268AA
:101B9000034B9A4200D008BD00F0F2FAFBE700BF09
:101BA0000040014072B6FEE700B595B0302200213A
:101BB00008A803F027FF00230393049305930693DB
:101BC00007930193204A116C41F080511164126C0B
:101BD00002F080520192019A02931C4B1A6842F45F
:101BE00080421A601B6803F480430293029B012326
:101BF00008934FF48033099302230E934FF480022D
:101C00000F9206221092A82211921293042313938A
:101C100008A800F089FE98B90F23039302230493C8
:101C2000002305934FF4A05306934FF4805307937A
:101C3000052103A801F0C8F820B915B05DF804FB30
:101C4000FFF7B0FFFFF7AEFF003802400070004022
:101C500008B500F07BFAFFF7A7FFFFF74DFFFFF78E
:101C6000EFFE00F01DF900F093F9FFF71DFF02F001
:101C7000A3F9FEE700B583B0002200920D4B596C2A
:101C800041F480415964596C01F4804100910099FC
:101C90000192196C41F0805119641B6C03F0805360
:101CA0000193019B0F216FF0010000F0A1FA03B036
:101CB0005DF804FB0038024010B588B000220146F0
:101CC000182000F095FA182000F0C6FA00240194BC
:101CD000144B5A6C42F480325A645B6C03F48033C8
:101CE0000193019B02A903A801F044F901F032F924
:101CF00043000D48A0FB03239B0C013B0B480C4AFF
:101D0000026040F2E732C26043600461846001F027
:101D1000BBFB10B1012008B010BD044801F04AFA25
:101D2000F9E700BF0038024083DE1B43CC0A0020E5
:101D300000400140FEE7FEE7FEE7FEE7FEE77047F2
:101D400008B5034801F07FFA024801F07CFA08BDAB
:101D5000180B0020CC0A002008B5024802F02AF82F
:101D600008BD00BF200C002008B5024800F0F6FBBB
:101D700008BD00BF600B002008B5024800F0EEFB74
:101D800008BD00BFC00B00200120704708B503F05C
:101D900063FB162303604FF0FF3008BD08B54FF01A
:101DA000FF31FFF7F3FFFEE710B503460C4A0D497C
:101DB0000D48006840B10C4800680344521A934231
:101DC00006D8094A136010BD0748084C0460F2E7C2
:101DD00003F042FB0C2303604FF0FF30F3E700BF3A
:101DE0000000022000040000140B0020184A00200C
:101DF000034AD2F8883043F47003C2F88830704741
:101E000000ED00E002680E4B9A4200D0704700B52A
:101E100083B00021019103F59C335A6C42F001021A
:101E20005A645B6C03F001030193019B0A4618207E
:101E300000F0DEF9182000F00FFA03B05DF804FBA3
:101E40000000014000B587B0002301930293039383
:101E50000493059302680F4B9A4202D007B05DF8D5
:101E600004FB002300930C4B1A6B42F010021A6320
:101E70001B6B03F010030093009B4FF4007301935E
:101E8000022302930123059301A9044800F054FCA6
:101E9000E4E700BF000001400038024000100240AB
:101EA00010B596B0002412941394149415941094C1
:101EB000119409940A940B940C940D940E940F941D
:101EC0002022214601A803F09DFD2F482F4B0360DF
:101ED000A7234360846044F61F63C36004614461C8
:101EE000846101F0D1FA00283BD116A94FF4805348
:101EF00041F8103D244801F0C9FB002834D12248A4
:101F000001F0EDFA002832D100231093119310A9AB
:101F10001D4801F0BFFC00282CD1602309934FF429
:101F2000FA630A9300220B920C920D920E920F927A
:101F300009A9154801F036FBF8B900230193029373
:101F40000393049305934FF400520692089301A95A
:101F50000D4801F0E3FC98B90B48FFF773FF16B08A
:101F600010BDFFF71FFEC0E7FFF71CFEC7E7FFF736
:101F700019FEC9E7FFF716FECFE7FFF713FEDCE710
:101F8000FFF710FEE8E700BF180B0020000001403B
:101F900008B50A480A4B03604FF4E133436000235D
:101FA0008360C36003610C2242618361C36101F0FD
:101FB000CDFD00B908BDFFF7F5FDFBE7200C0020C3
:101FC000001001402DE9F04188B0002303930493F1
:101FD000059306930793026803F1804303F5883362
:101FE0009A4202D008B0BDE8F08104460025009571
:101FF00003F594335A6C42F010025A645A6C02F0A2
:1020000010020092009A01951A6B42F002021A63C4
:102010001A6B02F002020192019A02951A6B42F0C9
:1020200001021A631B6B03F001030293029B8023DE
:1020300003934FF00208CDF8108003270697072678
:10204000079603A9264800F077FB4FF4007303932B
:10205000CDF8108005950697079603A9214800F052
:102060006BFB2148214B03604FF0006343608560A8
:10207000C5604FF480630361456185614FF48073EF
:10208000C3610562456200F071F918BB164BA3638A
:102090009C631748174B03604FF000634360402375
:1020A00083600023C3604FF48062026143618361F7
:1020B000C3610362436200F059F970B90C4B63636A
:1020C0009C6300220521252000F092F8252000F0D5
:1020D000C3F887E7FFF766FDD8E7FFF763FDEDE795
:1020E0000004024000000240600B002040640240F7
:1020F000C00B0020B8640240DFF834D00D480E4910
:102100000E4A002302E0D458C4500433C4188C4251
:10211000F9D30B4A0B4C002301E013600432A242B6
:10212000FBD3FFF765FE03F09DF9FFF791FD7047C4
:1021300000000220000000205408002094600008E5
:1021400054080020184A0020FEE7000008B50B4B99
:102150001A6842F400721A601A6842F480621A60C7
:102160001A6842F480721A60032000F02FF80020F1
:10217000FFF7A2FDFFF77EFD002008BD003C0240F6
:10218000034A1168034B1B780B441360704700BF70
:10219000640C002004000020014B1868704700BF49
:1021A000640C002038B50446FFF7F6FF0546B4F18D
:1021B000FF3F02D0044B1B781C44FFF7EDFF401B90
:1021C000A042FAD338BD00BF04000020074AD368FC
:1021D00023F4E0631B041B0C000200F4E0601843CE
:1021E00040F0BF6040F40030D060704700ED00E088
:1021F00030B4174BDB68C3F30223C3F10704042C8C
:1022000028BF04241D1D062D18D9033B4FF0FF35B0
:1022100005FA04F421EA0401994005FA03F322EADD
:102220000303194300280BDB0901C9B200F1604028
:1022300000F5614080F8001330BC70470023E5E7EB
:1022400000F00F000901C9B2024B1954F4E700BFB6
:1022500000ED00E014ED00E0002807DB00F01F02B5
:10226000400901239340024A42F82030704700BFE2
:1022700000E100E030B405682C6824F480242C6070
:10228000046863608368402B05D003689960036825
:10229000DA6030BC704703689A600368D960F8E779
:1022A0000268D3B2103B0B49A1FB03131B090A4977
:1022B000C95CC165032B06D822F47F7222F00302A9
:1022C0008265806D704722F47F7222F0030204322F
:1022D0008265F6E7ABAAAAAA885F0008836A8269CA
:1022E00092B9012B0AD01BB1022B01D000207047FC
:1022F000C36A13F0807F2CD100207047C36AB3F10A
:10230000C07F28D000207047B2F5005F05D0022BB7
:1023100029D9032B15D000207047032B03D8DFE801
:1023200003F01C041C0A00207047C36A13F0807F6E
:1023300015D100207047C36AB3F1C07F11D00020CF
:102340007047C36A13F0807F01D0012070470020DE
:10235000704701207047012070470120704701201D
:1023600070470120704701207047000070B5044697
:10237000FFF712FF002C5BD00546002384F83430B1
:10238000022384F835302268136823F001031360B8
:1023900023681A6812F0010F0AD0FFF7FDFE401BF8
:1023A0000528F5D920236365032084F8350070BD26
:1023B0001A68204810406168A2680A43E1680A432D
:1023C00021690A4361690A43A1690A43E1690A4331
:1023D000216A0A430243616A04291ED01A602668F2
:1023E000756925F00705636A1D43042B07D1A36AAD
:1023F0001D43E36A1BB12046FFF770FF90B975617A
:102400002046FFF74DFFE26D3F239340836000209D
:102410006065012384F83530C9E7E16A206B014328
:102420000A43DBE740236365012084F83500BEE7FB
:102430000120BCE73F8010F038B5856D90F834403E
:10244000012C2CD0012480F8344090F83540E4B2BF
:10245000012C04D0002380F83430022038BD04461B
:10246000022084F83500002060652046FFF702FF57
:10247000E26D3F239340AB602268136843F016037C
:102480001360236C23B12268136843F008031360C0
:102490002268136843F0010313600020DEE7022086
:1024A000DCE770B50446866DFFF776FE94F83530AC
:1024B000DBB2022B06D080236365002384F834301E
:1024C000012070BD05462268136823F016031360CF
:1024D0002268536923F080035361236CE3B12268BF
:1024E000136823F0080313602268136823F00103C4
:1024F000136023681B6813F0010F11D0FFF74CFE27
:10250000401B0528F5D920236365002384F8343067
:10251000032084F83500D4E7A36C002BDFD1E3E778
:10252000E26D3F239340B360002084F83400012320
:1025300084F83530C5E790F83530DBB2022B03D094
:102540008023436501207047052380F835300268F9
:10255000136823F00103136000207047F0B583B0C7
:10256000044600230193724B1D68724BA3FB053593
:10257000AD0A876D3E68C26D08239340334210D088
:1025800003681A6812F0040F0BD01A6822F00402D4
:102590001A60C26D08239340BB60436D43F0010392
:1025A0004365E26D01239340334209D022685269AA
:1025B00012F0800F04D0BB60636D43F002036365CB
:1025C000E26D04239340334209D02268126812F06E
:1025D000020F04D0BB60636D43F004036365E26DDA
:1025E00010239340334224D02268126812F0080F5F
:1025F0001FD0BB6023681A6812F4802F0DD01B68AF
:1026000013F4002F04D1236C9BB12046984710E0AF
:10261000A36C73B1204698470BE01A6812F4807FD0
:1026200003D11A6822F008021A60236C0BB120460D
:102630009847E26D20239340334255D022681268B8
:1026400012F0100F50D0BB6094F83530DBB2052B80
:102650000ED023681A6812F4802F33D01B6813F44D
:10266000002F2AD1636C002B3ED0204698473BE0D8
:102670002268136823F0160313602268536923F05D
:1026800080035361236CA3B12268136823F008030D
:102690001360E26D3F239340BB60002384F8343025
:1026A000012384F83530236D002B3FD02046984716
:1026B0003CE0A36C002BE7D1EBE7E36BA3B1204632
:1026C000984711E01A6812F4807F09D11A6822F045
:1026D00010021A60002384F83430012384F8353066
:1026E000E36B0BB120469847636DFBB1636D13F04C
:1026F000010F17D0052384F835302268136823F0C2
:1027000001031360019B01330193AB4204D823689A
:102710001B6813F0010FF5D1002384F83430012336
:1027200084F83530E36C0BB12046984703B0F0BD18
:1027300000000020B5814E1B00230F2B00F2DC802F
:10274000F0B482B05DE086685F000324BC4026EAF6
:102750000406CC68BC4034438460466826EA02061E
:102760004C68C4F300129A403243426056E0DC08E1
:10277000083450F8247003F0070296000F22B2408C
:1027800027EA02070A69B2403A4340F8242059E098
:10279000072200E00022B2403A430234574E46F886
:1027A0002420574A1468EA4302EA04064F6817F4E3
:1027B000803F01D045EA0406514C2660646802EA75
:1027C00004064F6817F4003F01D045EA04064C4C5C
:1027D0006660A46802EA04064F6817F4801F01D0FF
:1027E00045EA0406464CA660E46822404E6816F4AA
:1027F000001F01D045EA0402414CE26001330F2B77
:1028000077D801229A400C6804EA0205AA42F5D161
:102810004C6804F00304013C012C94D94A6802F08E
:102820000302032A09D0C4685E000322B24024EAEE
:1028300002048A68B2402243C2604A6802F003027E
:10284000022A94D004685E000322B24024EA020403
:102850004A6802F00302B240224302604A6812F062
:10286000805FCBD000220192264A546C44F480440D
:102870005464526C02F480420192019A9C08A61C96
:102880001E4A52F8267003F0030296000F22B2404F
:1028900027EA02071C4A90423FF47CAF02F58062AF
:1028A00090421AD002F58062904218D002F5806200
:1028B000904216D002F58062904214D002F58062F8
:1028C000904212D002F58062904210D002F58062F0
:1028D00090423FF45DAF08225DE701225BE70222F0
:1028E00059E7032257E7042255E7052253E706225A
:1028F00051E702B0F0BC7047704700BF003801409C
:10290000003C0140003802400000024003691942C7
:1029100001D1002070470120704712B9090481617C
:102920007047816170470000002800F0E98170B5B0
:1029300082B00446036813F0010F3BD0A74B9B689D
:1029400003F00C03042B2CD0A44B9B6803F00C0366
:10295000082B21D06368B3F5803F4FD0B3F5A02F8B
:1029600052D09E4B1A6822F480321A601A6822F400
:1029700080221A606368002B50D0FFF70DFC0546DB
:10298000964B1B6813F4003F14D1FFF705FC401B66
:102990006428F5D90320B8E1904B5B6813F4800FED
:1029A000D8D08E4B1B6813F4003F03D06368002B14
:1029B00000F0A881236813F0020F55D0874B9B6865
:1029C00013F00C0F3ED0854B9B6803F00C03082BD3
:1029D00033D0E368002B68D0814B01221A60FFF7E7
:1029E000DBFB05467D4B1B6813F0020F54D1FFF74C
:1029F000D3FB401B0228F5D9032086E1774A1368F0
:102A000043F480331360B5E7744B1A6842F48022B4
:102A10001A601A6842F480321A60ABE7FFF7BCFB19
:102A200005466E4B1B6813F4003FC3D0FFF7B4FBA1
:102A3000401B6428F5D9032067E1684B5B6813F4F9
:102A4000800FC6D1654B1B6813F0020F04D0E368FA
:102A5000012B01D0012058E1604A136823F0F803EC
:102A6000216943EAC1031360236813F0080F40D0C3
:102A7000636963B35B4B01221A60FFF78DFB054668
:102A8000564B5B6F13F0020F33D1FFF785FB401BF2
:102A90000228F5D9032038E1504A136823F0F803DF
:102AA000216943EAC1031360DEE74D4B00221A603F
:102AB000FFF772FB0546494B1B6813F0020FD3D09A
:102AC000FFF76AFB401B0228F5D903201DE1454BA7
:102AD00000221A60FFF760FB0546404B5B6F13F066
:102AE000020F06D0FFF758FB401B0228F5D9032040
:102AF0000BE1236813F0040F79D0384B1B6C13F0F3
:102B0000805F33D100230193344B1A6C42F0805222
:102B10001A641B6C03F080530193019B0125324B17
:102B20001B6813F4807F23D0A368012B34D0052BBE
:102B300038D02A4B1A6F22F001021A671A6F22F05E
:102B400004021A67A368002B36D0FFF725FB064660
:102B5000224B1B6F13F0020F48D1FFF71DFB801BA8
:102B600041F288339842F3D90320CEE00025D6E71E
:102B70001D4A136843F480731360FFF70DFB06468C
:102B8000194B1B6813F4807FCED1FFF705FB801B28
:102B90000228F5D90320B8E0104A136F43F001036F
:102BA0001367CFE70D4B1A6F42F004021A671A6FD2
:102BB00042F001021A67C5E7FFF7EEFA0646074B37
:102BC0001B6F13F0020F11D0FFF7E6FA801B41F2E2
:102BD00088339842F3D9032097E000BF00380240C1
:102BE00000004742800E474200700040EDB9A369E3
:102BF000002B00F08980484A926802F00C02082AF3
:102C000051D0022B17D0454B00221A60FFF7C4FAAF
:102C10000446414B1B6813F0007F42D0FFF7BCFA1B
:102C2000001B0228F5D903206FE03B4A136C23F008
:102C300080531364DBE7394B00221A60FFF7ACFACC
:102C40000546354B1B6813F0007F06D0FFF7A4FA4A
:102C5000401B0228F5D9032057E0E369226A134399
:102C6000626A43EA8213A26A5208013A43EA0243C3
:102C7000E26A43EA0263284A5360284B01221A6041
:102C8000FFF78AFA0446244B1B6813F0007F06D135
:102C9000FFF782FA001B0228F5D9032035E0002057
:102CA00033E0002031E0012B31D01B4B5B6803F493
:102CB0008001E269914201D0012026E003F03F0249
:102CC000216A8A4201D001201FE0616A47F6C07282
:102CD0001A40B2EB811F01D0012016E003F440310D
:102CE000A26A5208013AB1EB024F01D001200CE078
:102CF00003F07063E26AB3EB026F0AD0012004E0D4
:102D000001207047012000E0002002B070BD0120CA
:102D1000FBE70020F9E700BF0038024060004742AF
:102D2000264B9B6803F00C03042B44D0082B01D0E6
:102D3000234870472DE9F04B204B5A6802F03F02C0
:102D40005B6813F4800F13D01C4B5968C1F38811D2
:102D500000231C48A1FB0001FDF79EFC174B5B689C
:102D6000C3F3014301335B00B0FBF3F0BDE8F08B2C
:102D7000124B5B68C3F388131E4600275C010025D5
:102D8000E41A65EB0705A90141EA9461A001001B63
:102D900061EB0501CB0043EA5073C400A01943EB7B
:102DA00007018B0243EA9053840220461946002310
:102DB000FDF772FCD2E70348704700BF00380240BD
:102DC0000024F400001BB700002800F09E8070B5BE
:102DD0000446504B1B6803F007038B4209D2CBB269
:102DE0004C4A1370136803F007038B4201D0012093
:102DF00070BD236813F0020F17D013F0040F04D036
:102E0000454A936843F4E0539360236813F0080F36
:102E100004D0414A936843F4604393603E4A936808
:102E200023F0F003A068034393600D46236813F07A
:102E3000010F32D06368012B21D09A1E012A25D9B7
:102E4000354A126812F0020F61D033498A6822F0C5
:102E5000030213438B60FFF79FF906462E4B9B68D6
:102E600003F00C036268B3EB820F16D0FFF794F9FE
:102E7000801B41F288339842F0D90320B8E7264AF4
:102E8000126812F4003FE0D10120B1E7224A126833
:102E900012F0007FD9D10120AAE71E4B1B6803F076
:102EA0000703AB4209D9EAB21A4B1A701B6803F048
:102EB0000703AB4201D001209AE7236813F0040F07
:102EC00006D0154A936823F4E053E1680B439360FE
:102ED000236813F0080F07D00F4A936823F4604368
:102EE000216943EAC1039360FFF71AFF0A4B9B680D
:102EF000C3F30313094AD35CD840094B1860094B4C
:102F00001868FEF7D9FE002072E701207047012003
:102F10006EE700BF003C024000380240705F0008CE
:102F20000000002008000020014B1868704700BF17
:102F30000000002008B5FFF7F7FF044B9B68C3F3C0
:102F40008223034AD35CD84008BD00BF003802404A
:102F5000805F000808B5FFF7E7FF044B9B68C3F3E9
:102F60004233034AD35CD84008BD00BF003802405A
:102F7000805F00080F2303600B4B9A6802F0030286
:102F800042609A6802F0F00282609A6802F4E052AD
:102F9000C2609B68DB0803F4E0530361034B1B68CA
:102FA00003F007030B60704700380240003C02400A
:102FB00030B4036A23F001030362056A426884693E
:102FC00024F073040B681C4325F002058B682B4327
:102FD000104DA84203D005F58065A84205D123F025
:102FE0000803CD682B4323F004030A4DA84203D005
:102FF00005F58065A84205D122F440724D6915435C
:103000008A692A43426084614A684263036230BC31
:10301000704700BF0000014030B4036A23F480739E
:103020000362036A4268C46924F073040D682C4388
:1030300023F400738D6843EA0523124DA84203D0A0
:1030400005F58065A84206D123F40063CD6843EA04
:10305000052323F480630B4DA84203D005F580655A
:10306000A84207D122F440524D6942EA05128D6907
:1030700042EA05124260C4614A68C263036230BC1E
:10308000704700BF0000014030B4036A23F480534E
:103090000362036A4468C26922F4E6420D6842EAA8
:1030A000052223F400538D6843EA0533094DA842F5
:1030B00003D005F58065A84204D124F480444D690D
:1030C00044EA85144460C2614A680264036230BC09
:1030D000704700BF0000014010B4036A046A24F086
:1030E00001040462846924F0F00444EA021223F02B
:1030F0000A030B43826103625DF8044B704710B40E
:10310000036A23F0100303628469036A24F47044A1
:1031100044EA023223F0A00343EA0113826103620E
:103120005DF8044B7047836823F07003194341F046
:10313000070181607047000090F83D30DBB2012B41
:1031400001D001207047022380F83D300368184AFF
:10315000934220D0B3F1804F1DD0A2F57C42934220
:1031600019D002F58062934215D002F58062934235
:1031700011D002F5784293420DD002F5705293427D
:1031800009D0A2F59432934205D01A6842F00102A8
:103190001A60002070479A6802F00702062A05D0DC
:1031A0001A6842F001021A60002070470020704740
:1031B0000000014090F83D30DBB2012B01D001202E
:1031C0007047022380F83D300268D36843F0010362
:1031D000D3600368184A934220D0B3F1804F1DD0CA
:1031E000A2F57C42934219D002F58062934215D039
:1031F00002F58062934211D002F5784293420DD0DD
:1032000002F57052934209D0A2F59432934205D050
:103210001A6842F001021A60002070479A6802F0B2
:103220000702062A05D01A6842F001021A6000203F
:1032300070470020704700BF000001407047704792
:1032400070477047704710B5044603681A6912F05A
:10325000020F11D0DA6812F0020F0DD06FF00202E7
:103260001A610123037703689B6913F0030F70D081
:10327000FFF7E6FF0023237723681A6912F0040F93
:1032800012D0DA6812F0040F0ED06FF004021A6147
:103290000223237723689B6913F4407F5FD0204685
:1032A000FFF7CEFF0023237723681A6912F0080F77
:1032B00012D0DA6812F0080F0ED06FF008021A610F
:1032C000042323772368DB6913F0030F4ED02046D5
:1032D000FFF7B6FF0023237723681A6912F0100F57
:1032E00012D0DA6812F0100F0ED06FF010021A61CF
:1032F000082323772368DB6913F4407F3DD0204601
:10330000FFF79EFF0023237723681A6912F0010F4D
:1033100003D0DA6812F0010F36D123681A6912F06F
:10332000800F03D0DA6812F0800F34D123681A6955
:1033300012F0400F03D0DA6812F0400F32D1236848
:103340001A6912F0200F03D0DA6812F0200F30D182
:1033500010BDFFF774FF2046FFF773FF8AE7204692
:10336000FFF76DFF2046FFF76CFF9BE72046FFF756
:1033700066FF2046FFF765FFACE72046FFF75FFFDB
:103380002046FFF75EFFBDE76FF001021A6120469D
:10339000FEF7FCFBC1E76FF080021A61204600F0E7
:1033A000E7FAC3E76FF040021A612046FFF74AFFD1
:1033B000C5E76FF020021A61204600F0D8FAC7E78F
:1033C0000368304A904212D0B0F1804F0FD0A2F57E
:1033D0007C4290420BD002F58062904207D002F509
:1033E0008062904203D002F57842904203D123F0EC
:1033F00070034A681343234A90422AD0B0F1804FA9
:1034000027D0A2F57C42904223D002F58062904200
:103410001FD002F5806290421BD002F578429042A4
:1034200017D002F57052904213D002F5806290429C
:103430000FD002F5806290420BD0A2F598329042F4
:1034400007D002F58062904203D002F5806290427C
:1034500003D123F44073CA68134323F080034A69FD
:10346000134303608B68C3620B688362054B984209
:1034700003D003F58063984201D10B6903630123F4
:10348000436170470000014038B310B5044690F81E
:103490003D30EBB1022384F83D30211D2068FFF759
:1034A0008FFF012384F8463084F83E3084F83F30A3
:1034B00084F8403084F8413084F8423084F8433056
:1034C00084F8443084F8453084F83D30002010BD45
:1034D00080F83C30FEF796FCDCE70120704738B3FB
:1034E00010B5044690F83D30EBB1022384F83D302E
:1034F000211D2068FFF764FF012384F8463084F81B
:103500003E3084F83F3084F8403084F8413084F80D
:10351000423084F8433084F8443084F8453084F8ED
:103520003D30002010BD80F83C30FFF787FEDCE71F
:103530000120704730B4036A23F010030362036A6A
:103540004468826922F4E6420D6842EA052223F0CB
:1035500020038D6843EA0513114DA84203D005F5F9
:103560008065A84206D123F08003CD6843EA0513A5
:1035700023F040030A4DA84203D005F58065A84218
:1035800007D124F440644D6944EA85048D6944EA16
:103590008504446082614A688263036230BC70477C
:1035A0000000014038B590F83C30012B60D00D464A
:1035B0000446012380F83C300C2A1AD8DFE802F0D8
:1035C000071919191D191919311919194400006819
:1035D000FFF7EEFC2268936943F0080393612268C9
:1035E000936923F0040393612268936929690B436B
:1035F0009361002084F83C0038BD0068FFF79AFF13
:103600002268936943F4006393612268936923F409
:103610008063936122689369296943EA0123936176
:10362000E7E70068FFF7F8FC2268D36943F0080376
:10363000D3612268D36923F00403D3612268D3697C
:1036400029690B43D361D4E70068FFF71DFD2268A9
:10365000D36943F40063D3612268D36923F48063A0
:10366000D3612268D369296943EA0123D361C0E7A2
:103670000220C1E710B4846824F47F4442EA0323A3
:103680000B43234383605DF8044B704790F83C3054
:10369000012B66D010B50446012380F83C3002238C
:1036A00080F83D300268936823F47F4323F077036A
:1036B00093600B68402B4AD013D9602B3DD01ED9A4
:1036C000702B28D0B3F5005F30D1CB684A68896889
:1036D0000068FFF7CFFF2268936843F4804393604C
:1036E00024E0102B06D004D9202B03D0302B01D09E
:1036F0001CE0DBB919462068FFF715FD16E0502BDA
:1037000014D1CA6849680068FFF7E6FC50212068B8
:10371000FFF709FD0AE0CB684A6889680068FFF78F
:10372000A9FF2268936843F077039360012384F82C
:103730003D30002084F83C0010BDCA68496800682C
:10374000FFF7DDFC60212068FFF7EDFCEEE7CA68BB
:1037500049680068FFF7C0FC40212068FFF7E3FCE0
:10376000E4E70220704710B401F01F01012303FABF
:1037700001F4036A23EA04030362036A8A401343E1
:1037800003625DF8044B70470A46002945D190F862
:103790003E30DBB213F1FF3318BF0123002B73D18E
:1037A00010B5002A55D1022380F83E301146044658
:1037B00001220068FFF7D7FF2368354A934203D000
:1037C00002F58062934203D15A6C42F400425A647B
:1037D00023682F4A93424CD0B3F1804F49D0A2F5D1
:1037E0007C42934245D002F58062934241D002F57B
:1037F000806293423DD002F57842934239D002F57F
:103800007052934235D0A2F59432934231D01A6867
:1038100042F001021A60002035E0042909D008298D
:103820000FD090F84130DBB213F1FF3318BF012302
:10383000B4E790F83F30DBB213F1FF3318BF012338
:10384000ACE790F84030DBB213F1FF3318BF01232F
:10385000A4E7042A05D0082A07D0022380F84130C3
:10386000A4E7022380F83F30A0E7022380F840302D
:103870009CE79A6802F00702062A07D01A6842F00D
:1038800001021A60002010BD012070470020FAE7F5
:103890000000014090F83C30012B3BD030B40123B4
:1038A00080F83C30022380F83D3003685C689D68F6
:1038B00024F070040A6822435A600368164A93424F
:1038C0001AD0B3F1804F17D0A2F57C42934213D0A7
:1038D00002F5806293420FD002F5806293420BD0D2
:1038E00002F57842934207D002F57052934203D01A
:1038F000A2F59432934204D125F080054A6815431D
:103900009D60012380F83D30002380F83C3018464C
:1039100030BC7047022070470000014090F83C30F6
:10392000012B22D0012380F83C30CB6823F4407374
:103930008A68134323F480634A68134323F40063C3
:103940000A68134323F480530A69134323F4005392
:103950004A69134323F48043CA69134302685364DA
:10396000002380F83C3018467047022070477047AB
:1039700070470268D36823F0C003D360202380F827
:103980003D3070470268D36823F49073D3600268B7
:10399000536923F001035361036B012B05D02023EE
:1039A00080F83E300023036370470268D36823F039
:1039B0001003D360F3E790F83D30DBB2212B27D121
:1039C0008368B3F5805F16D0036A5A1C02621A78C6
:1039D00003685A60C38C013B9BB2C384D3B90268AD
:1039E000D36823F08003D3600268D36843F04003B8
:1039F000D360002070470369002BE5D1036A1B8860
:103A00000268C3F308035360036A02330362E1E709
:103A100002207047002070472DE9F04B04460268F1
:103A2000136923F44053C1680B431361836802692F
:103A3000134342691343C2691A430168CB6823F4F4
:103A4000164323F00C031343CB600268536923F43D
:103A5000407381690B43536103683A4A934206D02D
:103A600002F58062934202D0FFF764FA01E0FFF7AB
:103A700071FAE369B3F5004F30D04FF00009061832
:103A800049EB090716EB000B47EB090C4FEACC0397
:103A900043EA5B734FEACB0293469C4663689A0005
:103AA0009B0F10EB0B0049EB0C01FCF7F5FD264DCD
:103AB000A5FB00325109642202FB110213013233CB
:103AC000A5FB03235B0903F0F00202EB011203F0F4
:103AD0000F03216813448B60BDE8F08B83464FF0E1
:103AE000000C06184CEB0C0716EB000847EB0C0912
:103AF0004FEAC90343EA58734FEAC8029046994611
:103B000062680021921841EB01031BEB08004CEBAB
:103B10000901FCF7C1FD0C4DA5FB003251096422DF
:103B200002FB1102D3003233A5FB03235B095A00C9
:103B300002F4F87202EB011203F007032168134448
:103B40008B60C9E7001001401F85EB5158B310B5D9
:103B5000044690F83D300BB3242384F83D302268AE
:103B6000D36823F40053D3602046FFF755FF226843
:103B7000136923F4904313612268536923F02A03E5
:103B800053612268D36843F40053D360002020645B
:103B9000202384F83D3084F83E3010BD80F83C305E
:103BA000FEF710FAD8E701207047000038B590F80A
:103BB0003D40E4B2202C31D1002931D0002A31D04F
:103BC00090F83C30012B2FD013460446012280F898
:103BD0003C2001628384C38400250564212280F88F
:103BE0003D20426B1148D063626B11481064626BD8
:103BF0001048D064626B156522680432606BFEF772
:103C00001BFC23686FF040021A6084F83C50226865
:103C1000536943F080035361284600E0022038BD19
:103C20000120FCE70120FAE70220F8E73B3C00080E
:103C3000873C0008953C0008704708B5836B026814
:103C4000126812F4807F0CD10022DA8419684A6964
:103C500022F080024A611A68D36843F04003D360BF
:103C600008BD1846FFF7E8FFFAE708B50168CB681A
:103C700023F04003CB60202380F83D30FFF7DCFFCA
:103C8000002008BD704708B5806BFFF7FBFF08BD3B
:103C90007047704710B5846B23685A6994F83D30BB
:103CA000DBB2212B10D023685A6902F0400294F84D
:103CB0003E30DBB2222B11D0236C43F0100323647F
:103CC0002046FFF7E6FF10BD02F08002002AEAD08E
:103CD0000023E3842046FFF74CFEE4E7002AEBD004
:103CE0000023E3852046FFF74DFEE5E708B5806B2E
:103CF0000023C385C384FFF7CCFF08BD704790F84D
:103D00003E30DBB2222B50D18368B3F5805F30D0D8
:103D1000826AB3F5805F04D0002B37D10369002B92
:103D200034D103685B681370836A01338362C38D87
:103D3000013B9BB2C385002B39D110B50446026804
:103D4000D36823F02003D3600268D36823F4807320
:103D5000D3600268536923F001035361202380F884
:103D60003E30036B012B17D0FFF792FF002020633A
:103D700010BD0269002ACBD1826A03685B68C3F375
:103D800008031380836A02338362D0E703685B68A9
:103D900003F07F031370C7E70268D36823F01003B2
:103DA000D360818DFFF7AAFFE0E702207047002073
:103DB0007047000030B583B0044602681368D068CD
:103DC000516913F00F0505D113F0200F02D010F048
:103DD000200F56D1002D6AD011F0010102D110F44C
:103DE000907F64D013F0010F06D010F4807F03D0D1
:103DF000226C42F00102226413F0040F04D019B1C6
:103E0000226C42F00202226413F0020F04D019B1B6
:103E1000226C42F00402226413F0080F07D010F065
:103E2000200F00D119B1226C42F008022264226CEA
:103E3000002A4BD013F0200F02D010F0200F24D115
:103E400023685B6903F04003226C12F0080F00D175
:103E50003BB32046FFF796FD23685A6912F0400FE6
:103E60001BD05A6922F040025A61A36B8BB14E4AB3
:103E70001A65A06BFEF75FFB40B3A06B036D98471C
:103E800024E02046FFF73BFF20E02046FFF737FF06
:103E9000D6E72046FFF7FDFE18E02046FFF7F9FEC3
:103EA00014E02046FFF7F5FE002323640EE0216BAB
:103EB00001290DD013F0800F02D010F0800F6AD1CD
:103EC00013F0400F02D010F0400F68D103B030BDA6
:103ED00013F0100FEED010F0100FEBD00023019371
:103EE0001368019353680193019B536913F0400FCA
:103EF00030D0A16B0B685B689BB2002BE6D0A08D25
:103F00009842E3D9E385CB69B3F5807F1AD0D368B3
:103F100023F48073D3602268536923F00103536153
:103F20002268536923F040035361202384F83E3014
:103F3000002323632268D36823F01003D360A06BAF
:103F4000FEF7AFFAA18DE38DC91A89B22046FFF7BB
:103F5000D5FEBBE7A18DE38DC91A89B2E38D9BB273
:103F6000002BB3D00029B1D0D36823F49073D36071
:103F70002268536923F001035361202384F83E3003
:103F8000002323632268D36823F01003D360204604
:103F9000FFF7B4FE9AE72046FFF70DFD96E72046AF
:103FA000FFF763FE92E700BFED3C0008842801D0D4
:103FB000033070470020704708B500F037FD00203F
:103FC00008BD2DE9F04387B004460F464569A5B109
:103FD000866996B1D0F80480D0F80090B0F9080056
:103FE000FFF7E4FF22690296019500903B4649469F
:103FF000404600F0ADFC059013E065682668D4F8F3
:104000001080B4F90800FFF7D1FF05AB01930090D1
:104010003B461FFA88F23146284600F0D3FC0128BF
:1040200003D1059807B0BDE8F0830020FAE708B592
:10403000034600B90123184600F03CFE002008BDED
:1040400000F1080343604FF0FF328260C3600361F8
:1040500000230360704700230361704743684B608F
:104060009A688A609A6851609960086103680133B0
:104070000360704730B40D68B5F1FF3F02D000F126
:10408000080202E0026904E01A4653681C68AC4268
:10409000FAD953684B6099608A605160086103687F
:1040A0000133036030BC70470369426881689160E6
:1040B0008268416851605A68824206D000220261DB
:1040C0001A68013A1A601868704782685A60F5E702
:1040D00082B0002301930D4B1B68B3F1FF3F08D062
:1040E0004FF0500383F31188BFF36F8FBFF34F8FEF
:1040F000FEE74FF0500383F31188BFF36F8FBFF3D8
:104100004F8F019B002BFCD002B070470C000020A9
:1041100008480068006880F308884FF0000080F3CA
:10412000148862B661B6BFF34F8FBFF36F8F00DFA5
:1041300000BF000008ED00E0DFF80C00016841F46A
:10414000700101607047000088ED00E04FF080735F
:1041500040F8043C21F0010140F8081C054B40F8F0
:104160000C3C40F8202C6FF0020340F8243C44380B
:10417000704700BFD14000080000000000000000B0
:10418000074B19680868B0E8F04F80F30988BFF35F
:104190006F8F4FF0000080F311887047AFF30080FD
:1041A000904800204FF0500383F31188BFF36F8FC6
:1041B000BFF34F8F0A4A136801331360012B00D0FD
:1041C0007047084B1B6813F0FF0FF9D04FF05003F6
:1041D00083F31188BFF36F8FBFF34F8FFEE700BFEC
:1041E0000C00002004ED00E0094B1B6843B94FF0C0
:1041F000500383F31188BFF36F8FBFF34F8FFEE738
:10420000013B034A13600BB983F31188704700BF69
:104210000C00002000000000000000000000000072
:10422000EFF30980BFF36F8F154B1A681EF0100F64
:1042300008BF20ED108A20E9F04F10602DE9090039
:104240004FF0500080F31188BFF34F8FBFF36F8F93
:1042500000F056FD4FF0000080F3118809BC19688A
:104260000868B0E8F04F1EF0100F08BFB0EC108ADD
:1042700080F30988BFF36F8F704700BFAFF30080F2
:104280009048002008B54FF0500383F31188BFF326
:104290006F8FBFF34F8F00F007FC18B1034B4FF047
:1042A00080521A60002383F3118808BD04ED00E0FA
:1042B000084A0023136008490B60084B1B68084933
:1042C000A1FB03139B09013B06490B600723136005
:1042D000704700BF10E000E018E000E000000020A0
:1042E000D34D621014E000E03A4B1A683A4B9A4200
:1042F0000DD0384B1A68394B9A4211D14FF0500308
:1043000083F31188BFF36F8FBFF34F8FFEE74FF03A
:10431000500383F31188BFF36F8FBFF34F8FFEE716
:1043200010B582B02E4B1A78D2B20192FF221A70C9
:104330001B78DBB28DF803309DF8033003F0500397
:10434000284A1370284B07221A6009E0264A13688E
:10435000013B13609DF803305B00DBB28DF8033046
:104360009DF8033013F0800FF0D11F4B1B68032B17
:1043700008D04FF0500383F31188BFF36F8FBFF362
:104380004F8FFEE71B0203F4E063174A1360019BA3
:10439000DBB2134A1370154B1A6842F470021A60AC
:1043A0001A6842F070421A60FFF782FF0024104B37
:1043B0001C60FFF7C1FE0F4A136843F040431360CF
:1043C000FFF7A6FE00F09CFCFFF782FE204602B03D
:1043D00010BD00BF00ED00E071C20F4170C20F417F
:1043E00000E400E0680C00206C0C002020ED00E0F0
:1043F0000C00002034EF00E0124A12F0070F1ED02C
:10440000D11D21F00701C1F5705313440A460E482F
:104410000260002141601344083B23F007030B486E
:10442000036059601960991A51601360084B196054
:10443000084B1960084B4FF000421A6070474FF468
:104440007053E4E7740C002088480020700C0020B2
:104450007C480020784800207448002010B4134B9A
:104460001A6882421BD359685C18844203D14068A1
:1044700001445960184641684418A24213D10C4CBB
:104480002468A2420DD05268114441601A68126833
:104490000260984200D018605DF8044B70471346E4
:1044A000DEE70460F5E70260F3E700BF884800201C
:1044B000700C002070B5044600F0EEFA3C4B1B680F
:1044C000BBB13C4B1B681C4267D1ACB1083414F043
:1044D000070F11D024F00704083404F007035BB180
:1044E0004FF0500383F31188BFF36F8FBFF34F8FEB
:1044F000FEE7FFF781FFE4E7002C50D02E4B1B684E
:10450000A3424ED32D4B1D6801E02B4615466A6829
:10451000A24202D22A68002AF7D1254A1268AA428A
:1045200041D01E6808362A681A606B681B1B102B66
:1045300010D9281910F0070F08D04FF0500383F35B
:104540001188BFF36F8FBFF34F8FFEE743606C603E
:10455000FFF784FF6A6818490B689B1A0B601849BB
:1045600009688B4201D216490B60124B1B6813433A
:104570006B6000232B60134A13680133136000F053
:104580001FFB16F0070F10D04FF0500383F3118874
:10459000BFF36F8FBFF34F8FFEE70026EFE70026D4
:1045A000EDE70026EBE70026E9E7304670BD00BFE7
:1045B000700C0020744800207848002088480020B3
:1045C0007C48002080480020002834D038B50446BC
:1045D000A0F1080550F8042C174909680A4208D1CF
:1045E0004FF0500383F31188BFF36F8FBFF34F8FEA
:1045F000FEE750F8080C40B14FF0500383F31188E8
:10460000BFF36F8FBFF34F8FFEE722EA010244F83A
:10461000042C00F041FA54F8041C084A13680B44B7
:1046200013602846FFF71AFF054A13680133136029
:1046300000F0C6FA38BD7047744800207848002062
:1046400084480020084B1B681B683BB1064B1B6865
:10465000DB68DB685A68054B1A607047034B4FF004
:10466000FF321A60704700BF944800206449002060
:104670002DE9F04780469946089D099F0A9C266BC4
:1046800002F18042013A06EB820626F0070689B362
:104690000A4600230F2B07D8D05CE11881F83400BC
:1046A000D15C09B10133F5E7002384F84330062DCE
:1046B00000D90625E56265644FF0000AC4F848A0F9
:1046C000201DFFF7C8FC04F11800FFF7C4FC2461AB
:1046D000C5F10705A5616462C4F84CA084F850A038
:1046E0004A4641463046FFF731FD206007B13C6045
:1046F000BDE8F087002384F83430D8E738B50024CB
:1047000007E004EB840293000E481844FFF798FC7E
:104710000134062CF5D90C4D2846FFF791FC0B4CC3
:104720002046FFF78DFC0A48FFF78AFC0948FFF78F
:1047300087FC0948FFF784FC084B1D60084B1C6090
:1047400038BD00BF9C4800203C4900205049002053
:10475000704900209C49002088490020944800208E
:104760009848002010B50446FFF71CFD204A136846
:10477000013313601F4B1B685BB11F4B1B686BB988
:104780001C4B1B68DA6AE36A9A4207D8194B1C6013
:1047900004E0184B1C601368012B26D0174A1368DD
:1047A00001331360E36A01229A4015490868024305
:1047B0000A6003EB83039A00211D12481044FFF79F
:1047C0004DFCFFF711FD0C4B1B686BB1094B1B68CF
:1047D000DA6AE36A9A4207D20B4B4FF080521A60B2
:1047E000BFF34F8FBFF36F8F10BDFFF787FFD5E784
:1047F00028490020904800208449002034490020A6
:10480000384900209C48002004ED00E010B5044623
:1048100090F8513033B9006BFFF7D6FE2046FFF712
:10482000D3FE10BD012B0AD0022BFAD04FF050035B
:1048300083F31188BFF36F8FBFF34F8FFEE7FFF74E
:10484000C3FEEEE70F4B1B68D3B110B5FFF7AAFC10
:104850000D4BDB68DC68201DFFF726FC0B4A136854
:10486000013B1360074A1368013B1360FFF7BCFC70
:104870002046FFF7CBFF034B1B68002BE6D110BD92
:10488000704700BF2C4900209C4900202849002087
:1048900008B5FFF7D7FF064B1B68012BF9D9054B6D
:1048A0004FF080521A60BFF34F8FBFF36F8FF0E766
:1048B0009C48002004ED00E070B504460E461D4BF8
:1048C0001D681D4B18680430FFF7EEFB50B91A4BFA
:1048D0001B68DA6A012303FA02F218490B6823EA1B
:1048E00002030B60B4F1FF3F13D02C44124B1B6842
:1048F0005C60A54216D8124B18680F4B196804313A
:10490000FFF7B8FB0F4B1B68A34212D90D4B1C607D
:104910000FE0002EE9D0084B196804310A48FFF770
:104920009DFB06E0094B1868034B19680431FFF73B
:10493000A1FB70BDB04900209048002038490020FC
:1049400094480020644900208849002098480020AD
:1049500070B586B00B9D0C9C45B94FF0500383F3A6
:104960001188BFF36F8FBFF34F8FFEE744B94FF04D
:10497000500383F31188BFF36F8FBFF34F8FFEE7B0
:1049800054260496049E542E08D04FF0500383F30F
:104990001188BFF36F8FBFF34F8FFEE7049E25632F
:1049A000022584F8515000250395029405AD019528
:1049B0000A9D0095FFF75CFE2046FFF7D3FE0598A1
:1049C00006B070BD2DE9F04385B007468846154610
:1049D00099469000FFF76EFD08B306465420FFF796
:1049E00069FD0446B8B10663E4B1002384F8513090
:1049F000039302940D9B01930C9B00934B462A4614
:104A000041463846FFF734FE2046FFF7ABFE012053
:104A100005B0BDE8F0833046FFF7D6FDE4E74FF080
:104A2000FF30F5E74FF0FF30F2E7000010B588B037
:104A300000240594069407AA06A905A8FDF728F8FE
:104A4000059B0293069B019300942346079A0D4908
:104A50000D48FFF77DFF08B908B010BD4FF05003B7
:104A600083F31188BFF36F8FBFF34F8F074B4FF066
:104A7000FF321A60064B01221A60064B1C60FFF7DA
:104A800033FCE9E7905F0008914800086449002082
:104A900084490020B0490020024A136801331360A2
:104AA000704700BF30490020F8B53A4B1B68002B17
:104AB00069D1394B1D6801351D60C5B9374B1B687D
:104AC0001B6843B14FF0500383F31188BFF36F8F1E
:104AD000BFF34F8FFEE7314A1168314B1868106001
:104AE0001960304A136801331360FFF7ABFD2E4B9A
:104AF0001B68AB423DD900242C4B1B68DB6A03EBDF
:104B000083039A002A4B9B58012B00D90124294B7F
:104B10001B68002B3CD001243AE001241F4B1B688A
:104B20001B6843B31D4B1B68DB68DE6873689D42DE
:104B300026D3371D3846FFF7B7FAB36A1BB106F123
:104B40001800FFF7B1FAF36A01229A401A4908687F
:104B500002430A6003EB83039A0039461448104469
:104B6000FFF77CFAF26A114B1B68DB6A9A42D4D2D7
:104B7000D4E70024D2E70C4B4FF0FF321A60BBE7BA
:104B8000094A1360B8E70D4A136801331360002423
:104B90002046F8BD30490020B0490020944800204C
:104BA000984800206849002064490020904800206F
:104BB0009C480020B4490020384900206C4900205E
:104BC00038B5334B1B6843B94FF0500383F311885A
:104BD000BFF36F8FBFF34F8FFEE7FFF7E3FA2C4B66
:104BE0001A68013A1A601B68002B4DD1294B1B68CB
:104BF00023B90024FFF7F8FA204638BD0024264BDD
:104C00001B681BB3244BDB68DC6804F11800FFF75A
:104C10004BFA251D2846FFF747FAE36A01229A401E
:104C20001E49086802430A6003EB83039A00294681
:104C30001B481044FFF712FAE26A1A4B1B68DB6A42
:104C40009A42DCD3184B01221A60D8E70CB1FFF767
:104C5000F9FC164B1C6854B1FFF726FF10B1124B3C
:104C600001221A60013CF7D1104B00221A600E4B52
:104C70001B685BB10E4B4FF080521A60BFF34F8F31
:104C8000BFF36F8F0124B5E70024B3E70024B1E739
:104C90003049002028490020704900203849002070
:104CA0009C48002090480020B44900206C49002016
:104CB00004ED00E010B5A8B104460F4B1B6843B1EA
:104CC0004FF0500383F31188BFF36F8FBFF34F8F03
:104CD000FEE7FFF7E1FE00212046FFF7EDFDFFF7BD
:104CE0006FFF38B9054B4FF080521A60BFF34F8FFA
:104CF000BFF36F8F10BD00BF3049002004ED00E00E
:104D0000204B1B681BB1204B01221A6070471E4BC1
:104D100000221A601D4B1B68B3FA83F3DBB2C3F1A8
:104D20001F0303EB83018A0019498A5842B94FF0E7
:104D3000500383F31188BFF36F8FBFF34F8FFEE7EC
:104D400010B413489A00D418A10001444C68646858
:104D50004C601A4491000831084484420BD003EBA4
:104D600083039A000A4B13445B68DA68094B1A60A4
:104D70005DF8044B704761680548142202FB03028A
:104D80005160ECE730490020B44900203849002048
:104D90009C4800209048002030B40C4A55680C4BC9
:104DA0001B7800FB03F09268002105E0EC1A224416
:104DB00011441A46814207D2044B9B689A42FBD0A9
:104DC000F4D9D21A1144F4E730BC704710E000E087
:104DD000B849002008B50320FFF7DEFF08BD00003A
:104DE00010B50D4C012211462046FDF796FD01221B
:104DF00002212046FDF791FDFFF7ECFF0022012183
:104E00002046FDF78AFDFFF7E5FF0022022120463C
:104E1000FDF783FD10BD00BF0014024010B50D4C1E
:104E2000002202212046FDF778FD002201212046C4
:104E3000FDF773FDFFF7CEFF012202212046FDF7AB
:104E40006CFD012211462046FDF767FDFFF7C2FF0A
:104E500010BD00BF00140240134B1B7803B1704714
:104E600010B586B00124104B1C70002305930093ED
:104E70000E4B1A6B42F020021A631B6B03F02003E7
:104E80000093009B03230193112202920394049345
:104E900001A90748FDF750FCFFF7C0FF2046FDF7CA
:104EA00081F906B010BD00BFB949002000380240AA
:104EB0000014024010B5124C012211462046FDF7A5
:104EC0002CFDFFF787FF012202212046FDF725FD7B
:104ED000FFF780FF002401210948FDF717FD38B1D5
:104EE0000134E4B2FA2CF6D9FFF798FF012005E06F
:104EF000002202210248FDF710FD002010BD00BF76
:104F00000014024010B50D4C002202212046FDF78E
:104F100004FD002201212046FDF7FFFCFFF75AFFA8
:104F2000012202212046FDF7F8FCFFF753FF002283
:104F300002212046FDF7F1FC10BD00BF0014024025
:104F400010B50D4C002202212046FDF7E6FC01229F
:104F500011462046FDF7E1FCFFF73CFF012202214C
:104F60002046FDF7DAFCFFF735FF0022022120463C
:104F7000FDF7D3FC10BD00BF0014024070B505461C
:104F8000002202211348FDF7C8FC002417E001228B
:104F900011461048FDF7C1FC6D00EDB20D4E012227
:104FA00002213046FDF7B9FCFFF714FF0022022171
:104FB0003046FDF7B2FCFFF70DFF0134E4B2072CD9
:104FC00007D8EB09E3D1002201210248FDF7A5FC37
:104FD000E2E770BD00140240F8B5074600242546FC
:104FE00003E0FFF7F7FE0135EDB2072D17D8104E9D
:104FF000002202213046FDF790FCFFF7EBFE012274
:1050000002213046FDF789FC6400E4B201213046FC
:10501000FDF77CFC0028E4D00134E4B2E1E71FB1E5
:10502000FFF770FF2046F8BDFFF78AFFFAE700BFE1
:105030000014024070B504460E461546FFF7D0FE38
:10504000600000F0FE00FFF799FFFFF733FF70B933
:105050003046FFF793FFFFF72DFF2846FFF78EFF3F
:10506000FFF728FF044638B9FFF7D8FE02E0FFF744
:10507000D5FE0124204670BDFFF7D0FE0124F9E7DC
:1050800038B504460D46FFF7ABFE640004F0FE00A1
:10509000FFF774FFFFF70EFF2846FFF76FFFFFF7DC
:1050A00009FFFFF79DFE44F00100C0B2FFF766FF65
:1050B000FFF700FF0020FFF78FFF0446FFF7AEFE6B
:1050C000204638BDF8B507460C4615461E46012D4C
:1050D0000AD021463846FFF7D3FF06F8010B013D01
:1050E000EDB20134E4B2F2E721463846FFF7C8FFDB
:1050F00030700020F8BD2DE9F04104468846154681
:105100001E46FFF76DFE600000F0FE00FFF736FF61
:10511000FFF7D0FE88B907464046FFF72FFFFFF79D
:10512000C9FE3C46AC4212D2305DFFF727FFFFF7C5
:10513000C1FE40B90134E4B2F4E7FFF76FFE012786
:105140003846BDE8F081FFF769FE0127F8E7FFF771
:1051500065FEF5E710B582B0F1238DF80730FFF753
:105160007BFE00214020FFF78BFF02A901F8010D13
:1051700001221B48FEF71AFD9DF80720D30917D11D
:10518000A02200214020FFF755FF044600BB01206C
:10519000FDF708F800214020FFF772FF02A901F88F
:1051A000010D01220E48FEF701FD204602B010BDA0
:1051B00002F06F0200214020FFF73CFF01224FF474
:1051C00080610848FDF7A9FB0120FCF7EBFFD7E75A
:1051D00001224FF480510348FDF79FFB0124E4E7CF
:1051E000200C0020001C024010B5FFF735FEFFF731
:1051F000F7FD0020FFF7C2FEFFF75CFE48B906206E
:10520000FFF7BCFEFFF756FE044638B9FFF706FE6F
:1052100002E0FFF703FE0124204610BDFFF7FEFD6C
:105220000124F9E738B50446FFF716FEA4F1180388
:105230009BB240F2DE52934202D90124204638BD8F
:1052400007EE904AF8EEE77ADFED246A86EEA77A59
:10525000F7EE007A77EE677A17EE900AFBF71CF903
:1052600000221F4BFAF7BAFF41EC100B00F064F874
:1052700051EC100BFBF7F0F9C4B200214020FFF70E
:10528000FFFE054610F0100F0BD00120FCF78AFF3F
:105290002246FE214020FFF7CDFE044650B10124F6
:1052A000CCE700F06F0242F0100200214020FFF72F
:1052B000C1FEEAE72A4600214020FFF7BBFE01209D
:1052C000FCF770FF65F05E02D2B200214020FFF7CC
:1052D000B1FE0120FCF766FFB0E700BF20BCBE4571
:1052E0000000E03F0F2801D90120704710B582B0BF
:1052F0008DF80410090A8DF805108DF80620120AA1
:105300008DF8072084000634E4B201AB0422214664
:105310004020FFF7F0FE6B46042221464020FFF7B5
:10532000D1FE042269460248FEF740FC02B010BDDF
:10533000200C00200000000051EC100BC1F30A53B8
:105340002DE9F041A3F2FF35132D0C460F4610EE68
:10535000106A1DDC002D3DDB394B43FA05F801EAEC
:105360000803034319D034A3D3E90023FAF736FF27
:1053700000220023FBF766F9D0B3002C04DA4FF4C7
:10538000801343FA05F52F4427EA080400262FE08E
:10539000332D06DDB5F5806F30D041EC100BBDE844
:1053A000F081A3F213434FF0FF3828FA03F818EA0C
:1053B000000FF2D020A3D3E90023FAF70FFF002259
:1053C0000023FBF73FF998B1002C28DB26EA0806FA
:1053D0003C460DE018A3D3E90023FAF7FFFE0022B4
:1053E0000023FBF72FF918B1002C0FDB0026344601
:1053F0002346324643EC102BBDE8F08110EE102A14
:105400000B46FAF7EBFE41EC100BC8E724F0004323
:105410000C4A1E43002E18BF14460026E8E7142D40
:1054200008D00123C5F1340503FA05F5AE1928BFEC
:10543000FF18CBE70137C9E79C7500883CE4377E4D
:10544000FFFF0F000000F0BF08B5062000F06EFB64
:105450000120FCF7A3FC00BF014B1868704700BF98
:105460001000002070B50D4E0D4D761BB61006D005
:105470000024013455F8043B9847A642F9D1094E5F
:10548000094D761B00F042FDB61006D00024013411
:1054900055F8043B9847A642F9D170BD88600008D2
:1054A000886000089060000888600008024B014690
:1054B000186800F003B800BF100000202DE9F04F7D
:1054C00001F10B05162D83B0064623D8102900F2F2
:1054D000B98000F0E1FA102518230220C54F3B44A3
:1054E000A3F108025C68944200F06681636823F0CF
:1054F00003032344D4E902515A68E96042F00102EF
:105500008D6030465A6000F0CDFA0834204603B072
:10551000BDE8F08F35F0070500F19480A94200F254
:10552000918000F0B9FAB5F5FC7FC0F083816B0A79
:1055300000F08F80042B00F24681AB0903F13900A3
:1055400003F1380CC300AB4F3B44A3F108015C6886
:10555000A14206D10CE0002A80F21D81E468A1423C
:1055600006D0636823F003035A1B0F2AF3DD60465D
:105570003C69DFF894C2644571D0636823F003038B
:105580005A1B0F2A00F34481002AC7E904CC80F299
:105590002681B3F5007F80F06981DB08591C7A68A9
:1055A00057F83180C4F808804FF0010E9B100EFAB6
:1055B00003F307EBC10E1343AEF10802E2607B6018
:1055C00047F83140C8F80C408210012494409C42B6
:1055D0004BD81C4206D120F0030064001C4200F1AD
:1055E0000400FAD007EBC009CE468046DEF80C3046
:1055F0009E4507D122E1002A80F22981DB689E4581
:1056000000F01C81596821F003014A1B0F2AF2DDCA
:10561000D3E9028E5C1945F001055D6042F0010599
:10562000C8F80CE03046CEF80880C7E90444C4E965
:1056300002CC65605A50019300F034FA019B03F1EB
:10564000080463E700240C232046336003B0BDE860
:10565000F08F4FF4007340204FF03F0C73E77B68EE
:105660008210012494409C42B3D9BC68636823F043
:105670000309A94503D3A9EB05030F2B7BDC5E4B84
:10568000DFF888A11A68DAF80030013305EB020868
:1056900000F0488108F5805808F10F0828F47F6869
:1056A00028F00F084146304600F002FAB0F1FF3F03
:1056B000834600F0048104EB0900584500F2FD80A8
:1056C0004E4A13684344136000F04D81DAF800102D
:1056D00001311BBFABEB00001B18CAF800B0136010
:1056E0001BF0070300F03481C3F10801C3F58053B8
:1056F0008B440833D844C8F30B08A3EB0808414691
:105700003046019200F0D4F9431C019A00F0468122
:10571000A0EB0B01414441F001011368C7F808B048
:105720004344BC42CBF80410136015D0B9F10F0FFD
:1057300040F230816068A9F10C0121F0070100F00E
:10574000010004EB010C08434FF0050E0F296060C7
:10575000CCE901EE00F23A81294A2A481168BC6876
:105760008B42016888BF136062688B4222F003029B
:1057700088BF0360A7E0621943F0010345F001050B
:1057800065603046BA60536000F08CF908342046FA
:1057900003B0BDE8F08F2344E1685A68A56842F081
:1057A0000102E96030468D605A6000F07BF90834F0
:1057B000204603B0BDE8F08FDC68A34208BF02308A
:1057C0003FF4D6AE92E6142B71D9542B00F2AD8083
:1057D0002B0B03F16F0003F16E0CC300B3E62344FF
:1057E00030465A6842F001025A60083400F05AF913
:1057F0008CE600BF40040020EC490020BC4900209A
:10580000E4490020E849002048040020480800201E
:10581000611945F0010E42F00105C4F804E030467C
:10582000C7E90411C1E902CC4D60E25000F03AF939
:1058300008346BE6E80805F108034FE608F10108B3
:1058400018F0030F0EF1080E7FF4D0AE52E01944A9
:105850001C464A68DB6854F8085F42F001024A605F
:105860003046EB609D6000F01DF94FE65A0A042AAD
:1058700035D9142A6FD802F15C01C9005B3207EBFD
:10588000010E7958AEF1080E8E4558D04A6822F0C4
:1058900003029A4202D989688E45F7D1D1F80CE00B
:1058A0007B68C4E9021ECEF80840CC608CE603F1A8
:1058B0005C0003F15B0CC30045E6BC4272D0BC68DF
:1058C000626822F003029542A2EB050302D80F2B77
:1058D0003FF751AF304600F0E5F8002416E69A098C
:1058E00002F13901C9003832C9E7D9F80090994569
:1058F00040F0838010F0030FA9F1080300F1FF309E
:10590000F3D17B6823EA04037B6064009C423FF68A
:10591000ACAE1CB9A9E6640008F104081C42FAD038
:1059200040465FE608F11008BCE6B3F5AA7F26D82A
:10593000EB0B03F1780003F1770CC30003E67B68FF
:1059400092104FF0010808FA02F213437B60A8E7B7
:105950004FF48053CEE6542A29D81A0B02F16F0176
:10596000C9006E328BE7C0F30B0100297FF4AEAEA5
:1059700009EB0802B96842F001024A60ECE640F225
:10598000545293421CD8AB0C03F17D0003F17C0C04
:10599000C300D8E50123CBF804309BE701214FF089
:1059A0000008BAE6164A1368434413608EE6B2F55F
:1059B000AA7F14D8DA0B02F17801C90077325EE7CA
:1059C0004FF47E737F204FF07E0CBCE504F108019C
:1059D0003046019200F042F9019A1368BCE640F2A9
:1059E00054518A4205D89A0C02F17D01C9007C32DB
:1059F00045E74FF47E717E2241E77B6885E700BF73
:105A0000BC490020F0B4860743D0541E002A3ED083
:105A1000CAB2034602E014F1FF3438D303F8012B75
:105A20009D07F8D1032C2BD9CDB245EA05250F2CC3
:105A300045EA054516D9A4F110073F0903F12006F0
:105A400006EB071603F1100242E9045542E902553C
:105A50001032B242F8D104F00F040137032C03EBEB
:105A600007130DD91E462246043A032A46F8045B62
:105A7000FAD8221F22F003020432134404F0030474
:105A80002CB1C9B21C4403F8011B9C42FBD1F0BCF1
:105A9000704714460346C5E7014800F0D3B900BF7C
:105AA000004A0020014800F0CFB900BF004A0020A2
:105AB00038B5074C0023054608462360FCF774F907
:105AC000431C00D038BD2368002BFBD02B6038BDB1
:105AD000144A00201F2938B522D8D0F8DC320546F8
